:100000000C945E000C9486000C9486000C94860080
:100010000C9486000C9486000C9486000C94860048
:100020000C9486000C9486000C9486000C94860038
:100030000C9486000C9486000C9486000C94860028
:100040000C9442020C9486000C94B2020C948C0224
:100050000C9486000C9486000C9486000C94860008
:100060000C9486000C9486000000000024002700F9
:100070002A0000000000250028002B0004040404CE
:100080000404040402020202020203030303030342
:10009000010204081020408001020408102001021F
:1000A00004081020000000080002010000030407FB
:1000B0000000000000000000E402870511241FBEBC
:1000C000CFEFD8E0DEBFCDBF22E0A4E3B1E001C0B6
:1000D0001D92A930B207E1F711E0A0E0B1E0ECEB2E
:1000E000FFE002C005900D92A433B107D9F710E0EC
:1000F000CDE5D0E004C02197FE010E94D905CC35A2
:10010000D107C9F70E9447030C94D1070C94000053
:100110000895AF92BF92CF92DF92EF92FF920F932A
:100120001F93CF93DF936C017B018B01040F151F8D
:10013000EB015E01AE18BF08C017D10759F06991F5
:10014000D601ED91FC910190F081E02DC601099559
:10015000892B79F7C501DF91CF911F910F91FF9006
:10016000EF90DF90CF90BF90AF900895FC01538D3A
:10017000448D252F30E0842F90E0821B930B541781
:1001800010F0CF96089501970895FC01918D828D0E
:10019000981761F0A28DAE0FBF2FB11D5D968C91A7
:1001A000928D9F5F9F73928F90E008958FEF9FEFE6
:1001B00008952FB7F89480913A0190913B01A09156
:1001C0003C01B0913D012FBF8093460190934701C0
:1001D000A0934801B09349018EE391E00E94C500CD
:1001E00097FF26C02FB7F89480913A0190913B0178
:1001F000A0913C01B0913D012FBF4091460150912B
:1002000047016091480170914901841B950BA60B31
:10021000B70B4091420150914301609144017091AC
:10022000450184179507A607B707B0F28FEF9FEF38
:100230000895FC01918D828D981731F0828DE80F21
:10024000F11D858D90E008958FEF9FEF0895FC01DB
:10025000918D228D892F90E0805C9F4F821B9109A8
:100260008F73992708958EE391E00E94270121E082
:10027000892B09F420E0822F089580E090E0892BFB
:1002800029F00E94330181110C9400000895FC01B3
:10029000A48DA80FB92FB11DA35ABF4F2C91848DE7
:1002A00090E001968F739927848FA689B7892C9344
:1002B000A089B1898C91837080648C93938D848D97
:1002C000981306C00288F389E02D80818F7D80839A
:1002D0000895EF92FF920F931F93CF93DF93EC015A
:1002E00081E0888F9B8D8C8D98131AC0E889F989DD
:1002F000808185FF15C09FB7F894EE89FF896083E0
:10030000E889F98980818370806480839FBF81E060
:1003100090E0DF91CF911F910F91FF90EF900895A2
:10032000F62E0B8D10E00F5F1F4F0F731127E02E7D
:100330008C8D8E110CC00FB607FCFACFE889F989B5
:10034000808185FFF5CFCE010E944701F1CFEB8D73
:10035000EC0FFD2FF11DE35AFF4FF0829FB7F89489
:100360000B8FEA89FB8980818062CFCFCF93DF93A7
:10037000EC01888D8823B9F0AA89BB89E889F989BD
:100380008C9185FD03C0808186FD0DC00FB607FCF2
:10039000F7CF8C9185FFF2CF808185FFEDCFCE0125
:1003A0000E944701E9CFDF91CF91089542E050E0EC
:1003B00068E171E08EE391E00C9489000F931F9344
:1003C000CF93DF93EC0188819981009759F02A81BE
:1003D0003B812617370730F081E0DF91CF911F91E5
:1003E0000F9108958B016F5F7F4F0E940407009764
:1003F00059F0998388831B830A832C813D81232BA9
:1004000059F7FC011082E8CF80E0E7CFEF92FF922E
:100410000F931F93CF93DF93EC017B018A01BA0105
:100420000E94DE0128813981811114C02115310516
:1004300019F0C9010E947B06198218821D821C8254
:100440001B821A82CE01DF91CF911F910F91FF90F5
:10045000EF9008951D830C83B701C9010E94CA075C
:10046000F1CFFC0111821082138212821582148254
:10047000FB0101900020E9F73197AF01461B570BB4
:100480000C9406021F920F920FB60F9211242F9315
:100490003F938F939F93AF93BF9380913A01909135
:1004A0003B01A0913C01B0913D013091390123E025
:1004B000230F2D3758F50196A11DB11D2093390149
:1004C00080933A0190933B01A0933C01B0933D018E
:1004D0008091350190913601A0913701B09138019A
:1004E0000196A11DB11D8093350190933601A09313
:1004F0003701B0933801BF91AF919F918F913F9198
:100500002F910F900FBE0F901F90189526E8230F84
:100510000296A11DB11DD2CF1F920F920FB60F925E
:1005200011242F933F934F935F936F937F938F93F8
:100530009F93AF93BF93EF93FF938EE391E00E945D
:100540004701FF91EF91BF91AF919F918F917F9163
:100550006F915F914F913F912F910F900FBE0F9030
:100560001F9018951F920F920FB60F9211242F9380
:100570008F939F93EF93FF93E0914E01F0914F0182
:100580008081E0915401F091550182FD1BC0908162
:10059000809157018F5F8F7320915801821741F02E
:1005A000E0915701F0E0E25CFE4F958F8093570198
:1005B000FF91EF919F918F912F910F900FBE0F9010
:1005C0001F9018958081F4CF0F931F93CF93DF93E3
:1005D000109241011092400188EE93E0A0E0B0E05B
:1005E0008093420190934301A0934401B09345014D
:1005F0008AE091E090933F0180933E0185EC90E08A
:1006000090934B0180934A0184EC90E090934D01CC
:1006100080934C0180EC90E090934F0180934E01C9
:1006200081EC90E0909351018093500182EC90E036
:10063000909353018093520186EC90E09093550182
:100640008093540110925701109258011092590151
:1006500010925A016AE171E08FEF91E00E9431023D
:10066000C1EED1E00FEF11E06AE171E0CE010E942E
:10067000310226960C171D07B9F76BE171E08BED7F
:1006800091E0DF91CF911F910F910C943102CF93A4
:10069000DF93CDB7DEB766970FB6F894DEBF0FBE17
:1006A000CDBF789484B5826084BD84B5816084BDFB
:1006B00085B5826085BD85B5816085BD80916E0000
:1006C000816080936E001092810080918100826031
:1006D000809381008091810081608093810080916E
:1006E00080008160809380008091B100846080935D
:1006F000B1008091B00081608093B00080917A0059
:10070000846080937A0080917A00826080937A007E
:1007100080917A00816080937A0080917A0080686D
:1007200080937A001092C100E0914E01F0914F0148
:1007300082E08083E0914A01F0914B011082E091C8
:100740004C01F0914D018FEC808310925601E091A5
:100750005201F091530186E08083E0915001F091C5
:100760005101808180618083E0915001F0915101BD
:10077000808188608083E0915001F09151018081F7
:1007800080688083E0915001F091510180818F7DDC
:10079000808326E130E0F901E057FF4F4491F901F1
:1007A000E458FF4F8491882399F090E0880F991FB7
:1007B000FC01E859FF4FA591B491FC01EE58FF4FA1
:1007C000859194918FB7F894EC91E42BEC938FBFC3
:1007D0002F5F3F4F25323105F1F64DE050E065E2E5
:1007E00071E08EE391E00E9489000E94D6018EE3C1
:1007F00091E00E942701892B09F40DC11A8A198AF8
:100800001C8A1B8A1E8A1D8A50E040E06AE171E062
:10081000CE0141960E9406020E94D9006D897E8910
:1008200097FD1AC089831A828B010F5F1F4FB80191
:10083000CE0141960E94DE01882371F329893A890D
:100840008D899E89BE016F5F7F4F820F931F0E942B
:10085000CA071E8B0D8BE0CF4FEF5FEF5A834983A2
:1008600029893A8990E080E001E010E08617970737
:10087000D1F1F901E80FF91F2115310521F410928A
:100880003401E4E3F1E04081483251F4F801EE0F25
:10089000FF1FA1E0B0E0AC0FBD1FEA0FFB1F11C0AE
:1008A0002115310511F4109234014081493271F45F
:1008B000F801EE0FFF1F41E050E04C0F5D1FE40F09
:1008C000F51F918380830F5F1F4F0BC021153105EA
:1008D00011F41092340140814C3219F405301105A5
:1008E000ACF20196C3CFFE0131962F0131EE632E9B
:1008F00031E0732E6301312C212CFFEF2F1A3F0AB8
:10090000F20182809380E080F18042E0440E511C2D
:100910005FEFE51AF50A8E149F0428F0982D892DB3
:100920004701E92EF82E1C861B861E861D86188A16
:100930001F8650E040E06AE171E0CE010B960E9414
:100940000602AD88BE888A149B0420F5EA14FB04D5
:1009500008F45701E989FA89EA0DFB1DF08010823D
:1009600069897A89680D791D6115710509F48EC050
:10097000FB0101900020E9F73197AF01461B570BAF
:10098000CE010B960E94060289899A89A80EB91E8B
:10099000D501FC92F60180819181009709F485C010
:1009A0006B857C856115710509F47DC04281538199
:1009B0002F8538894217530708F475C00E94CA076B
:1009C0008F859889D60115969C938E9314978B8565
:1009D0009C850E947B06F6E0CF0ED11C0215130504
:1009E00009F08BCF89899A890E947B06D3011496DE
:1009F0004D915C9115976D917C918EE391E00E94F1
:100A000089000E94D601B6E06B0E711CE9EFF1E09F
:100A1000E615F70559F787E190E0FC01EC55FF4F2B
:100A20002491FC01E057FF4F3491FC01E458FF4F43
:100A3000E491EE23D1F0222359F0233009F450C081
:100A400008F043C0213009F451C0223009F452C0EB
:100A5000F0E0EE0FFF1FEE58FF4FA591B4912FB7B6
:100A6000F894EC913E2B3C932FBF01968532910573
:100A7000A1F640E050E0452B09F4B9CE0E943301C5
:100A8000882309F4B4CE0E940000B1CE8B859C85EA
:100A9000009711F00E947B061C861B86188A1F8611
:100AA0001E861D8671CF0E947B068B859C85F60174
:100AB000918380838D859E85938382838F8598899A
:100AC000958384831C861B8682CF2730B1F0283023
:100AD000D1F0243009F0BCCF209180002F7D03C0DD
:100AE000209180002F7720938000B2CF24B52F77FC
:100AF00024BDAECF24B52F7DFBCF2091B0002F7742
:100B00002093B000A5CF2091B0002F7DF9CFCF93D7
:100B1000DF938091DB019091DC010E947B06CFEF97
:100B2000D1E02697888199810E947B0681E0C13EB1
:100B3000D807B9F78091FF0190910002DF91CF9122
:100B40000C947B062F923F924F925F926F927F920E
:100B50008F929F92AF92BF92CF92DF92EF92FF92CD
:100B60000F931F93CF93DF93CDB7DEB7CA1BDB0B79
:100B70000FB6F894DEBF0FBECDBF09942A8839881E
:100B800048885F846E847D848C849B84AA84B98425
:100B9000C884DF80EE80FD800C811B81AA81B98131
:100BA000CE0FD11D0FB6F894DEBF0FBECDBFED0145
:100BB0000895EE0FFF1F0590F491E02D09940F9317
:100BC0001F93CF93DF938230910510F482E090E081
:100BD000E0910702F091080230E020E0B0E0A0E0F0
:100BE000309799F42115310509F44AC0281B390BB7
:100BF00024303105D8F58A819B816115710589F111
:100C0000FB0193838283FE0111C0408151810281E7
:100C1000138148175907E0F04817590799F41097BE
:100C200061F012960C93129713961C933296CF0193
:100C3000DF91CF911F910F910895009307021093B8
:100C40000802F4CF2115310551F04217530738F04F
:100C5000A901DB019A01BD01DF01F801C1CFEF015C
:100C6000F9CF9093080280930702CDCFFE01E20FE7
:100C7000F31F819391932250310939832883D7CF71
:100C80002091050230910602232B41F420910201AC
:100C90003091030130930602209305022091000158
:100CA000309101012115310541F42DB73EB7409136
:100CB000040150910501241B350BE0910502F091D0
:100CC0000602E217F307A0F42E1B3F0B2817390783
:100CD00078F0AC014E5F5F4F2417350748F04E0F98
:100CE0005F1F5093060240930502819391939FCF1B
:100CF000F0E0E0E09CCFCF93DF930097E9F0FC01B8
:100D0000329713821282A0910702B0910802ED017E
:100D100030E020E01097A1F420813181820F931FF1
:100D200020910502309106022817390709F061C0A9
:100D3000F0930602E0930502DF91CF910895EA0156
:100D4000CE17DF07E8F54A815B819E014115510509
:100D5000B1F7E901FB83EA8349915991C40FD51F8B
:100D6000EC17FD0761F4808191810296840F951F35
:100D7000E90199838883828193819B838A83F0E050
:100D8000E0E012968D919C9113970097B9F52D9103
:100D90003C911197CD010296820F931F209105027D
:100DA000309106022817390739F6309751F510921D
:100DB000080210920702B0930602A0930502BCCF6E
:100DC000D383C28340815181840F951FC817D907EF
:100DD00061F44E5F5F4F88819981480F591F51839D
:100DE00040838A819B81938382832115310509F099
:100DF000B0CFF0930802E09307029ECFFD01DC0123
:100E0000C0CF13821282D7CFB0E0A0E0EAE0F7E0D3
:100E10000C94A4058C01009751F4CB010E94DF05CE
:100E20008C01C801CDB7DEB7E0E10C94C005FC0130
:100E3000E60FF71F9C0122503109E217F30708F46F
:100E40009DC0D901CD91DC911197C617D70798F0B5
:100E5000C530D10530F3CE0104978617970708F304
:100E6000C61BD70B2297C193D1936D937C93CF016F
:100E70000E947B06D6CF5B01AC1ABD0A4C018C0EDA
:100E80009D1EA0910702B0910802512C412CF12C1B
:100E9000E12C109731F5809105029091060288159A
:100EA000990509F05CC04616570608F058C08091B5
:100EB000000190910101009741F48DB79EB74091D8
:100EC000040150910501841B950BE817F90708F000
:100ED00055C0F0930602E0930502F9017183608327
:100EE000A0CF8D919C91119712966C9012971396AA
:100EF0007C901397A815B90559F56C0142E0C40E12
:100F0000D11CCA14DB0420F1AC014A195B09DA01D7
:100F10001296159780F06282738251834083D901C3
:100F20006D937C93E114F10471F0D7011396FC9357
:100F3000EE93129776CF22968C0F9D1FF901918325
:100F40008083F301EFCFF0930802E093070269CFAB
:100F50004816590608F42C017D01D3019ACFCB0124
:100F60000E94DF057C01009749F0AE01B8010E94A4
:100F7000C107C8010E947B06870153CF10E000E043
:100F800050CFFB01DC0102C001900D924150504056
:100F9000D8F70895FB01DC0101900D920020E1F7E4
:100FA000089510E0CDE5D0E004C0FE010E94D9050F
:0C0FB0002196CE35D107C9F7F894FFCF89
:100FBC000000090280000000000069018900B600F1
:100FCC00B6012701C50019010D0A00656E61626C3E
:100FDC0065416C6C00656E64206F6620736574757A
:040FEC007021000070
:107E0000112484B714BE81FFF0D085E080938100F7
:107E100082E08093C00088E18093C10086E0809377
:107E2000C20080E18093C4008EE0C9D0259A86E02C
:107E300020E33CEF91E0309385002093840096BBD3
:107E4000B09BFECF1D9AA8958150A9F7CC24DD24C4
:107E500088248394B5E0AB2EA1E19A2EF3E0BF2EE7
:107E6000A2D0813461F49FD0082FAFD0023811F036
:107E7000013811F484E001C083E08DD089C08234E0
:107E800011F484E103C0853419F485E0A6D080C0E4
:107E9000853579F488D0E82EFF2485D0082F10E0AE
:107EA000102F00270E291F29000F111F8ED06801E7
:107EB0006FC0863521F484E090D080E0DECF843638
:107EC00009F040C070D06FD0082F6DD080E0C81688
:107ED00080E7D80618F4F601B7BEE895C0E0D1E017
:107EE00062D089930C17E1F7F0E0CF16F0E7DF06D8
:107EF00018F0F601B7BEE89568D007B600FCFDCFD4
:107F0000A601A0E0B1E02C9130E011968C91119780
:107F100090E0982F8827822B932B1296FA010C0160
:107F200087BEE89511244E5F5F4FF1E0A038BF0790
:107F300051F7F601A7BEE89507B600FCFDCF97BE46
:107F4000E89526C08437B1F42ED02DD0F82E2BD052
:107F50003CD0F601EF2C8F010F5F1F4F84911BD097
:107F6000EA94F801C1F70894C11CD11CFA94CF0C13
:107F7000D11C0EC0853739F428D08EE10CD085E9AC
:107F80000AD08FE07ACF813511F488E018D01DD067
:107F900080E101D065CF982F8091C00085FFFCCF94
:107FA0009093C60008958091C00087FFFCCF809118
:107FB000C00084FD01C0A8958091C6000895E0E648
:107FC000F0E098E1908380830895EDDF803219F02E
:107FD00088E0F5DFFFCF84E1DECF1F93182FE3DFCA
:107FE0001150E9F7F2DF1F91089580E0E8DFEE27F6
:047FF000FF270994CA
:027FFE00040479
:0400000300007E007B
:00000001FF